{
  "contractName": "BookNFT",
  "abi": [
    {
      "inputs": [],
      "stateMutability": "nonpayable",
      "type": "constructor"
    },
    {
      "anonymous": false,
      "inputs": [
        {
          "indexed": true,
          "internalType": "address",
          "name": "owner",
          "type": "address"
        },
        {
          "indexed": true,
          "internalType": "address",
          "name": "approved",
          "type": "address"
        },
        {
          "indexed": true,
          "internalType": "uint256",
          "name": "tokenId",
          "type": "uint256"
        }
      ],
      "name": "Approval",
      "type": "event"
    },
    {
      "anonymous": false,
      "inputs": [
        {
          "indexed": true,
          "internalType": "address",
          "name": "owner",
          "type": "address"
        },
        {
          "indexed": true,
          "internalType": "address",
          "name": "operator",
          "type": "address"
        },
        {
          "indexed": false,
          "internalType": "bool",
          "name": "approved",
          "type": "bool"
        }
      ],
      "name": "ApprovalForAll",
      "type": "event"
    },
    {
      "anonymous": false,
      "inputs": [
        {
          "indexed": true,
          "internalType": "address",
          "name": "from",
          "type": "address"
        },
        {
          "indexed": true,
          "internalType": "address",
          "name": "to",
          "type": "address"
        },
        {
          "indexed": true,
          "internalType": "uint256",
          "name": "tokenId",
          "type": "uint256"
        }
      ],
      "name": "Transfer",
      "type": "event"
    },
    {
      "inputs": [
        {
          "internalType": "address",
          "name": "to",
          "type": "address"
        },
        {
          "internalType": "uint256",
          "name": "tokenId",
          "type": "uint256"
        }
      ],
      "name": "approve",
      "outputs": [],
      "stateMutability": "nonpayable",
      "type": "function"
    },
    {
      "inputs": [
        {
          "internalType": "address",
          "name": "owner",
          "type": "address"
        }
      ],
      "name": "balanceOf",
      "outputs": [
        {
          "internalType": "uint256",
          "name": "",
          "type": "uint256"
        }
      ],
      "stateMutability": "view",
      "type": "function",
      "constant": true
    },
    {
      "inputs": [
        {
          "internalType": "uint256",
          "name": "tokenId",
          "type": "uint256"
        }
      ],
      "name": "getApproved",
      "outputs": [
        {
          "internalType": "address",
          "name": "",
          "type": "address"
        }
      ],
      "stateMutability": "view",
      "type": "function",
      "constant": true
    },
    {
      "inputs": [
        {
          "internalType": "address",
          "name": "owner",
          "type": "address"
        },
        {
          "internalType": "address",
          "name": "operator",
          "type": "address"
        }
      ],
      "name": "isApprovedForAll",
      "outputs": [
        {
          "internalType": "bool",
          "name": "",
          "type": "bool"
        }
      ],
      "stateMutability": "view",
      "type": "function",
      "constant": true
    },
    {
      "inputs": [],
      "name": "name",
      "outputs": [
        {
          "internalType": "string",
          "name": "",
          "type": "string"
        }
      ],
      "stateMutability": "view",
      "type": "function",
      "constant": true
    },
    {
      "inputs": [
        {
          "internalType": "uint256",
          "name": "tokenId",
          "type": "uint256"
        }
      ],
      "name": "ownerOf",
      "outputs": [
        {
          "internalType": "address",
          "name": "",
          "type": "address"
        }
      ],
      "stateMutability": "view",
      "type": "function",
      "constant": true
    },
    {
      "inputs": [
        {
          "internalType": "address",
          "name": "from",
          "type": "address"
        },
        {
          "internalType": "address",
          "name": "to",
          "type": "address"
        },
        {
          "internalType": "uint256",
          "name": "tokenId",
          "type": "uint256"
        }
      ],
      "name": "safeTransferFrom",
      "outputs": [],
      "stateMutability": "nonpayable",
      "type": "function"
    },
    {
      "inputs": [
        {
          "internalType": "address",
          "name": "from",
          "type": "address"
        },
        {
          "internalType": "address",
          "name": "to",
          "type": "address"
        },
        {
          "internalType": "uint256",
          "name": "tokenId",
          "type": "uint256"
        },
        {
          "internalType": "bytes",
          "name": "_data",
          "type": "bytes"
        }
      ],
      "name": "safeTransferFrom",
      "outputs": [],
      "stateMutability": "nonpayable",
      "type": "function"
    },
    {
      "inputs": [
        {
          "internalType": "address",
          "name": "operator",
          "type": "address"
        },
        {
          "internalType": "bool",
          "name": "approved",
          "type": "bool"
        }
      ],
      "name": "setApprovalForAll",
      "outputs": [],
      "stateMutability": "nonpayable",
      "type": "function"
    },
    {
      "inputs": [
        {
          "internalType": "bytes4",
          "name": "interfaceId",
          "type": "bytes4"
        }
      ],
      "name": "supportsInterface",
      "outputs": [
        {
          "internalType": "bool",
          "name": "",
          "type": "bool"
        }
      ],
      "stateMutability": "view",
      "type": "function",
      "constant": true
    },
    {
      "inputs": [],
      "name": "symbol",
      "outputs": [
        {
          "internalType": "string",
          "name": "",
          "type": "string"
        }
      ],
      "stateMutability": "view",
      "type": "function",
      "constant": true
    },
    {
      "inputs": [
        {
          "internalType": "uint256",
          "name": "tokenId",
          "type": "uint256"
        }
      ],
      "name": "tokenURI",
      "outputs": [
        {
          "internalType": "string",
          "name": "",
          "type": "string"
        }
      ],
      "stateMutability": "view",
      "type": "function",
      "constant": true
    },
    {
      "inputs": [
        {
          "internalType": "address",
          "name": "from",
          "type": "address"
        },
        {
          "internalType": "address",
          "name": "to",
          "type": "address"
        },
        {
          "internalType": "uint256",
          "name": "tokenId",
          "type": "uint256"
        }
      ],
      "name": "transferFrom",
      "outputs": [],
      "stateMutability": "nonpayable",
      "type": "function"
    },
    {
      "inputs": [
        {
          "internalType": "address",
          "name": "recipient",
          "type": "address"
        },
        {
          "internalType": "string",
          "name": "title",
          "type": "string"
        },
        {
          "internalType": "string",
          "name": "author",
          "type": "string"
        },
        {
          "internalType": "string",
          "name": "isbn",
          "type": "string"
        }
      ],
      "name": "mintBook",
      "outputs": [
        {
          "internalType": "uint256",
          "name": "",
          "type": "uint256"
        }
      ],
      "stateMutability": "nonpayable",
      "type": "function"
    },
    {
      "inputs": [
        {
          "internalType": "uint256",
          "name": "tokenId",
          "type": "uint256"
        }
      ],
      "name": "getBook",
      "outputs": [
        {
          "internalType": "string",
          "name": "",
          "type": "string"
        },
        {
          "internalType": "string",
          "name": "",
          "type": "string"
        },
        {
          "internalType": "string",
          "name": "",
          "type": "string"
        }
      ],
      "stateMutability": "view",
      "type": "function",
      "constant": true
    }
  ],
  "bytecode": "0x60806040523480156200001157600080fd5b506040518060400160405280600781526020017f426f6f6b4e4654000000000000000000000000000000000000000000000000008152506040518060400160405280600481526020017f424e465400000000000000000000000000000000000000000000000000000000815250816000908051906020019062000096929190620000b8565b508060019080519060200190620000af929190620000b8565b505050620001cd565b828054620000c69062000168565b90600052602060002090601f016020900481019282620000ea576000855562000136565b82601f106200010557805160ff191683800117855562000136565b8280016001018555821562000136579182015b828111156200013557825182559160200191906001019062000118565b5b50905062000145919062000149565b5090565b5b80821115620001645760008160009055506001016200014a565b5090565b600060028204905060018216806200018157607f821691505b602082108114156200019857620001976200019e565b5b50919050565b7f4e487b7100000000000000000000000000000000000000000000000000000000600052602260045260246000fd5b612bdb80620001dd6000396000f3fe608060405234801561001057600080fd5b50600436106100f55760003560e01c80636352211e11610097578063b88d4fde11610066578063b88d4fde14610296578063c87b56dd146102b2578063e0ff5b8b146102e2578063e985e9c514610314576100f5565b80636352211e146101fc57806370a082311461022c57806395d89b411461025c578063a22cb4651461027a576100f5565b8063095ea7b3116100d3578063095ea7b31461017857806323b872dd146101945780633f04cce1146101b057806342842e0e146101e0576100f5565b806301ffc9a7146100fa57806306fdde031461012a578063081812fc14610148575b600080fd5b610114600480360381019061010f9190611da9565b610344565b6040516101219190612507565b60405180910390f35b610132610426565b60405161013f9190612522565b60405180910390f35b610162600480360381019061015d9190611dfb565b6104b8565b60405161016f91906124a0565b60405180910390f35b610192600480360381019061018d9190611d6d565b61053d565b005b6101ae60048036038101906101a99190611bbc565b610655565b005b6101ca60048036038101906101c59190611cc2565b6106b5565b6040516101d79190612770565b60405180910390f35b6101fa60048036038101906101f59190611bbc565b61076d565b005b61021660048036038101906102119190611dfb565b61078d565b60405161022391906124a0565b60405180910390f35b61024660048036038101906102419190611b57565b61083f565b6040516102539190612770565b60405180910390f35b6102646108f7565b6040516102719190612522565b60405180910390f35b610294600480360381019061028f9190611c86565b610989565b005b6102b060048036038101906102ab9190611c0b565b610b0a565b005b6102cc60048036038101906102c79190611dfb565b610b6c565b6040516102d99190612522565b60405180910390f35b6102fc60048036038101906102f79190611dfb565b610c13565b60405161030b93929190612544565b60405180910390f35b61032e60048036038101906103299190611b80565b610e55565b60405161033b9190612507565b60405180910390f35b60007f80ac58cd000000000000000000000000000000000000000000000000000000007bffffffffffffffffffffffffffffffffffffffffffffffffffffffff1916827bffffffffffffffffffffffffffffffffffffffffffffffffffffffff1916148061040f57507f5b5e139f000000000000000000000000000000000000000000000000000000007bffffffffffffffffffffffffffffffffffffffffffffffffffffffff1916827bffffffffffffffffffffffffffffffffffffffffffffffffffffffff1916145b8061041f575061041e82610ee9565b5b9050919050565b606060008054610435906129d0565b80601f0160208091040260200160405190810160405280929190818152602001828054610461906129d0565b80156104ae5780601f10610483576101008083540402835291602001916104ae565b820191906000526020600020905b81548152906001019060200180831161049157829003601f168201915b5050505050905090565b60006104c382610f53565b610502576040517f08c379a00000000000000000000000000000000000000000000000000000000081526004016104f9906126b0565b60405180910390fd5b6004600083815260200190815260200160002060009054906101000a900473ffffffffffffffffffffffffffffffffffffffff169050919050565b60006105488261078d565b90508073ffffffffffffffffffffffffffffffffffffffff168373ffffffffffffffffffffffffffffffffffffffff1614156105b9576040517f08c379a00000000000000000000000000000000000000000000000000000000081526004016105b090612710565b60405180910390fd5b8073ffffffffffffffffffffffffffffffffffffffff166105d8610fbf565b73ffffffffffffffffffffffffffffffffffffffff161480610607575061060681610601610fbf565b610e55565b5b610646576040517f08c379a000000000000000000000000000000000000000000000000000000000815260040161063d90612630565b60405180910390fd5b6106508383610fc7565b505050565b610666610660610fbf565b82611080565b6106a5576040517f08c379a000000000000000000000000000000000000000000000000000000000815260040161069c90612730565b60405180910390fd5b6106b083838361115e565b505050565b60006106c160066113ba565b60006106cd60066113d0565b90506106d986826113de565b60405180606001604052808681526020018581526020018481525060076000838152602001908152602001600020600082015181600001908051906020019061072392919061197b565b50602082015181600101908051906020019061074092919061197b565b50604082015181600201908051906020019061075d92919061197b565b5090505080915050949350505050565b61078883838360405180602001604052806000815250610b0a565b505050565b6000806002600084815260200190815260200160002060009054906101000a900473ffffffffffffffffffffffffffffffffffffffff169050600073ffffffffffffffffffffffffffffffffffffffff168173ffffffffffffffffffffffffffffffffffffffff161415610836576040517f08c379a000000000000000000000000000000000000000000000000000000000815260040161082d90612670565b60405180910390fd5b80915050919050565b60008073ffffffffffffffffffffffffffffffffffffffff168273ffffffffffffffffffffffffffffffffffffffff1614156108b0576040517f08c379a00000000000000000000000000000000000000000000000000000000081526004016108a790612650565b60405180910390fd5b600360008373ffffffffffffffffffffffffffffffffffffffff1673ffffffffffffffffffffffffffffffffffffffff168152602001908152602001600020549050919050565b606060018054610906906129d0565b80601f0160208091040260200160405190810160405280929190818152602001828054610932906129d0565b801561097f5780601f106109545761010080835404028352916020019161097f565b820191906000526020600020905b81548152906001019060200180831161096257829003601f168201915b5050505050905090565b610991610fbf565b73ffffffffffffffffffffffffffffffffffffffff168273ffffffffffffffffffffffffffffffffffffffff1614156109ff576040517f08c379a00000000000000000000000000000000000000000000000000000000081526004016109f6906125f0565b60405180910390fd5b8060056000610a0c610fbf565b73ffffffffffffffffffffffffffffffffffffffff1673ffffffffffffffffffffffffffffffffffffffff16815260200190815260200160002060008473ffffffffffffffffffffffffffffffffffffffff1673ffffffffffffffffffffffffffffffffffffffff16815260200190815260200160002060006101000a81548160ff0219169083151502179055508173ffffffffffffffffffffffffffffffffffffffff16610ab9610fbf565b73ffffffffffffffffffffffffffffffffffffffff167f17307eab39ab6107e8899845ad3d59bd9653f200f220920489ca2b5937696c3183604051610afe9190612507565b60405180910390a35050565b610b1b610b15610fbf565b83611080565b610b5a576040517f08c379a0000000000000000000000000000000000000000000000000000000008152600401610b5190612730565b60405180910390fd5b610b66848484846115ac565b50505050565b6060610b7782610f53565b610bb6576040517f08c379a0000000000000000000000000000000000000000000000000000000008152600401610bad906126f0565b60405180910390fd5b6000610bc0611608565b90506000815111610be05760405180602001604052806000815250610c0b565b80610bea8461161f565b604051602001610bfb92919061247c565b6040516020818303038152906040525b915050919050565b6060806060610c2184610f53565b610c60576040517f08c379a0000000000000000000000000000000000000000000000000000000008152600401610c5790612750565b60405180910390fd5b600060076000868152602001908152602001600020604051806060016040529081600082018054610c90906129d0565b80601f0160208091040260200160405190810160405280929190818152602001828054610cbc906129d0565b8015610d095780601f10610cde57610100808354040283529160200191610d09565b820191906000526020600020905b815481529060010190602001808311610cec57829003601f168201915b50505050508152602001600182018054610d22906129d0565b80601f0160208091040260200160405190810160405280929190818152602001828054610d4e906129d0565b8015610d9b5780601f10610d7057610100808354040283529160200191610d9b565b820191906000526020600020905b815481529060010190602001808311610d7e57829003601f168201915b50505050508152602001600282018054610db4906129d0565b80601f0160208091040260200160405190810160405280929190818152602001828054610de0906129d0565b8015610e2d5780601f10610e0257610100808354040283529160200191610e2d565b820191906000526020600020905b815481529060010190602001808311610e1057829003601f168201915b5050505050815250509050806000015181602001518260400151935093509350509193909250565b6000600560008473ffffffffffffffffffffffffffffffffffffffff1673ffffffffffffffffffffffffffffffffffffffff16815260200190815260200160002060008373ffffffffffffffffffffffffffffffffffffffff1673ffffffffffffffffffffffffffffffffffffffff16815260200190815260200160002060009054906101000a900460ff16905092915050565b60007f01ffc9a7000000000000000000000000000000000000000000000000000000007bffffffffffffffffffffffffffffffffffffffffffffffffffffffff1916827bffffffffffffffffffffffffffffffffffffffffffffffffffffffff1916149050919050565b60008073ffffffffffffffffffffffffffffffffffffffff166002600084815260200190815260200160002060009054906101000a900473ffffffffffffffffffffffffffffffffffffffff1673ffffffffffffffffffffffffffffffffffffffff1614159050919050565b600033905090565b816004600083815260200190815260200160002060006101000a81548173ffffffffffffffffffffffffffffffffffffffff021916908373ffffffffffffffffffffffffffffffffffffffff160217905550808273ffffffffffffffffffffffffffffffffffffffff1661103a8361078d565b73ffffffffffffffffffffffffffffffffffffffff167f8c5be1e5ebec7d5bd14f71427d1e84f3dd0314c0f7b2291e5b200ac8c7c3b92560405160405180910390a45050565b600061108b82610f53565b6110ca576040517f08c379a00000000000000000000000000000000000000000000000000000000081526004016110c190612610565b60405180910390fd5b60006110d58361078d565b90508073ffffffffffffffffffffffffffffffffffffffff168473ffffffffffffffffffffffffffffffffffffffff16148061114457508373ffffffffffffffffffffffffffffffffffffffff1661112c846104b8565b73ffffffffffffffffffffffffffffffffffffffff16145b8061115557506111548185610e55565b5b91505092915050565b8273ffffffffffffffffffffffffffffffffffffffff1661117e8261078d565b73ffffffffffffffffffffffffffffffffffffffff16146111d4576040517f08c379a00000000000000000000000000000000000000000000000000000000081526004016111cb906126d0565b60405180910390fd5b600073ffffffffffffffffffffffffffffffffffffffff168273ffffffffffffffffffffffffffffffffffffffff161415611244576040517f08c379a000000000000000000000000000000000000000000000000000000000815260040161123b906125d0565b60405180910390fd5b61124f8383836117cc565b61125a600082610fc7565b6001600360008573ffffffffffffffffffffffffffffffffffffffff1673ffffffffffffffffffffffffffffffffffffffff16815260200190815260200160002060008282546112aa91906128e6565b925050819055506001600360008473ffffffffffffffffffffffffffffffffffffffff1673ffffffffffffffffffffffffffffffffffffffff1681526020019081526020016000206000828254611301919061285f565b92505081905550816002600083815260200190815260200160002060006101000a81548173ffffffffffffffffffffffffffffffffffffffff021916908373ffffffffffffffffffffffffffffffffffffffff160217905550808273ffffffffffffffffffffffffffffffffffffffff168473ffffffffffffffffffffffffffffffffffffffff167fddf252ad1be2c89b69c2b068fc378daa952ba7f163c4a11628f55a4df523b3ef60405160405180910390a4505050565b6001816000016000828254019250508190555050565b600081600001549050919050565b600073ffffffffffffffffffffffffffffffffffffffff168273ffffffffffffffffffffffffffffffffffffffff16141561144e576040517f08c379a000000000000000000000000000000000000000000000000000000000815260040161144590612690565b60405180910390fd5b61145781610f53565b15611497576040517f08c379a000000000000000000000000000000000000000000000000000000000815260040161148e906125b0565b60405180910390fd5b6114a3600083836117cc565b6001600360008473ffffffffffffffffffffffffffffffffffffffff1673ffffffffffffffffffffffffffffffffffffffff16815260200190815260200160002060008282546114f3919061285f565b92505081905550816002600083815260200190815260200160002060006101000a81548173ffffffffffffffffffffffffffffffffffffffff021916908373ffffffffffffffffffffffffffffffffffffffff160217905550808273ffffffffffffffffffffffffffffffffffffffff16600073ffffffffffffffffffffffffffffffffffffffff167fddf252ad1be2c89b69c2b068fc378daa952ba7f163c4a11628f55a4df523b3ef60405160405180910390a45050565b6115b784848461115e565b6115c3848484846117d1565b611602576040517f08c379a00000000000000000000000000000000000000000000000000000000081526004016115f990612590565b60405180910390fd5b50505050565b606060405180602001604052806000815250905090565b60606000821415611667576040518060400160405280600181526020017f300000000000000000000000000000000000000000000000000000000000000081525090506117c7565b600082905060005b6000821461169957808061168290612a02565b915050600a8261169291906128b5565b915061166f565b60008167ffffffffffffffff8111156116db577f4e487b7100000000000000000000000000000000000000000000000000000000600052604160045260246000fd5b6040519080825280601f01601f19166020018201604052801561170d5781602001600182028036833780820191505090505b5090505b600085146117c05760018261172691906128e6565b9150600a856117359190612a4b565b6030611741919061285f565b60f81b81838151811061177d577f4e487b7100000000000000000000000000000000000000000000000000000000600052603260045260246000fd5b60200101907effffffffffffffffffffffffffffffffffffffffffffffffffffffffffffff1916908160001a905350600a856117b991906128b5565b9450611711565b8093505050505b919050565b505050565b60006117f28473ffffffffffffffffffffffffffffffffffffffff16611968565b1561195b578373ffffffffffffffffffffffffffffffffffffffff1663150b7a0261181b610fbf565b8786866040518563ffffffff1660e01b815260040161183d94939291906124bb565b602060405180830381600087803b15801561185757600080fd5b505af192505050801561188857506040513d601f19601f820116820180604052508101906118859190611dd2565b60015b61190b573d80600081146118b8576040519150601f19603f3d011682016040523d82523d6000602084013e6118bd565b606091505b50600081511415611903576040517f08c379a00000000000000000000000000000000000000000000000000000000081526004016118fa90612590565b60405180910390fd5b805181602001fd5b63150b7a0260e01b7bffffffffffffffffffffffffffffffffffffffffffffffffffffffff1916817bffffffffffffffffffffffffffffffffffffffffffffffffffffffff191614915050611960565b600190505b949350505050565b600080823b905060008111915050919050565b828054611987906129d0565b90600052602060002090601f0160209004810192826119a957600085556119f0565b82601f106119c257805160ff19168380011785556119f0565b828001600101855582156119f0579182015b828111156119ef5782518255916020019190600101906119d4565b5b5090506119fd9190611a01565b5090565b5b80821115611a1a576000816000905550600101611a02565b5090565b6000611a31611a2c846127bc565b61278b565b905082815260208101848484011115611a4957600080fd5b611a5484828561298e565b509392505050565b6000611a6f611a6a846127ec565b61278b565b905082815260208101848484011115611a8757600080fd5b611a9284828561298e565b509392505050565b600081359050611aa981612b49565b92915050565b600081359050611abe81612b60565b92915050565b600081359050611ad381612b77565b92915050565b600081519050611ae881612b77565b92915050565b600082601f830112611aff57600080fd5b8135611b0f848260208601611a1e565b91505092915050565b600082601f830112611b2957600080fd5b8135611b39848260208601611a5c565b91505092915050565b600081359050611b5181612b8e565b92915050565b600060208284031215611b6957600080fd5b6000611b7784828501611a9a565b91505092915050565b60008060408385031215611b9357600080fd5b6000611ba185828601611a9a565b9250506020611bb285828601611a9a565b9150509250929050565b600080600060608486031215611bd157600080fd5b6000611bdf86828701611a9a565b9350506020611bf086828701611a9a565b9250506040611c0186828701611b42565b9150509250925092565b60008060008060808587031215611c2157600080fd5b6000611c2f87828801611a9a565b9450506020611c4087828801611a9a565b9350506040611c5187828801611b42565b925050606085013567ffffffffffffffff811115611c6e57600080fd5b611c7a87828801611aee565b91505092959194509250565b60008060408385031215611c9957600080fd5b6000611ca785828601611a9a565b9250506020611cb885828601611aaf565b9150509250929050565b60008060008060808587031215611cd857600080fd5b6000611ce687828801611a9a565b945050602085013567ffffffffffffffff811115611d0357600080fd5b611d0f87828801611b18565b935050604085013567ffffffffffffffff811115611d2c57600080fd5b611d3887828801611b18565b925050606085013567ffffffffffffffff811115611d5557600080fd5b611d6187828801611b18565b91505092959194509250565b60008060408385031215611d8057600080fd5b6000611d8e85828601611a9a565b9250506020611d9f85828601611b42565b9150509250929050565b600060208284031215611dbb57600080fd5b6000611dc984828501611ac4565b91505092915050565b600060208284031215611de457600080fd5b6000611df284828501611ad9565b91505092915050565b600060208284031215611e0d57600080fd5b6000611e1b84828501611b42565b91505092915050565b611e2d8161291a565b82525050565b611e3c8161292c565b82525050565b6000611e4d8261281c565b611e578185612832565b9350611e6781856020860161299d565b611e7081612b38565b840191505092915050565b6000611e8682612827565b611e908185612843565b9350611ea081856020860161299d565b611ea981612b38565b840191505092915050565b6000611ebf82612827565b611ec98185612854565b9350611ed981856020860161299d565b80840191505092915050565b6000611ef2603283612843565b91507f4552433732313a207472616e7366657220746f206e6f6e20455243373231526560008301527f63656976657220696d706c656d656e74657200000000000000000000000000006020830152604082019050919050565b6000611f58601c83612843565b91507f4552433732313a20746f6b656e20616c7265616479206d696e746564000000006000830152602082019050919050565b6000611f98602483612843565b91507f4552433732313a207472616e7366657220746f20746865207a65726f2061646460008301527f72657373000000000000000000000000000000000000000000000000000000006020830152604082019050919050565b6000611ffe601983612843565b91507f4552433732313a20617070726f766520746f2063616c6c6572000000000000006000830152602082019050919050565b600061203e602c83612843565b91507f4552433732313a206f70657261746f7220717565727920666f72206e6f6e657860008301527f697374656e7420746f6b656e00000000000000000000000000000000000000006020830152604082019050919050565b60006120a4603883612843565b91507f4552433732313a20617070726f76652063616c6c6572206973206e6f74206f7760008301527f6e6572206e6f7220617070726f76656420666f7220616c6c00000000000000006020830152604082019050919050565b600061210a602a83612843565b91507f4552433732313a2062616c616e636520717565727920666f7220746865207a6560008301527f726f2061646472657373000000000000000000000000000000000000000000006020830152604082019050919050565b6000612170602983612843565b91507f4552433732313a206f776e657220717565727920666f72206e6f6e657869737460008301527f656e7420746f6b656e00000000000000000000000000000000000000000000006020830152604082019050919050565b60006121d6602083612843565b91507f4552433732313a206d696e7420746f20746865207a65726f20616464726573736000830152602082019050919050565b6000612216602c83612843565b91507f4552433732313a20617070726f76656420717565727920666f72206e6f6e657860008301527f697374656e7420746f6b656e00000000000000000000000000000000000000006020830152604082019050919050565b600061227c602983612843565b91507f4552433732313a207472616e73666572206f6620746f6b656e2074686174206960008301527f73206e6f74206f776e00000000000000000000000000000000000000000000006020830152604082019050919050565b60006122e2602f83612843565b91507f4552433732314d657461646174613a2055524920717565727920666f72206e6f60008301527f6e6578697374656e7420746f6b656e00000000000000000000000000000000006020830152604082019050919050565b6000612348602183612843565b91507f4552433732313a20617070726f76616c20746f2063757272656e74206f776e6560008301527f72000000000000000000000000000000000000000000000000000000000000006020830152604082019050919050565b60006123ae603183612843565b91507f4552433732313a207472616e736665722063616c6c6572206973206e6f74206f60008301527f776e6572206e6f7220617070726f7665640000000000000000000000000000006020830152604082019050919050565b6000612414602983612843565b91507f426f6f6b4e46543a20426f6f6b20717565727920666f72206e6f6e657869737460008301527f656e7420746f6b656e00000000000000000000000000000000000000000000006020830152604082019050919050565b61247681612984565b82525050565b60006124888285611eb4565b91506124948284611eb4565b91508190509392505050565b60006020820190506124b56000830184611e24565b92915050565b60006080820190506124d06000830187611e24565b6124dd6020830186611e24565b6124ea604083018561246d565b81810360608301526124fc8184611e42565b905095945050505050565b600060208201905061251c6000830184611e33565b92915050565b6000602082019050818103600083015261253c8184611e7b565b905092915050565b6000606082019050818103600083015261255e8186611e7b565b905081810360208301526125728185611e7b565b905081810360408301526125868184611e7b565b9050949350505050565b600060208201905081810360008301526125a981611ee5565b9050919050565b600060208201905081810360008301526125c981611f4b565b9050919050565b600060208201905081810360008301526125e981611f8b565b9050919050565b6000602082019050818103600083015261260981611ff1565b9050919050565b6000602082019050818103600083015261262981612031565b9050919050565b6000602082019050818103600083015261264981612097565b9050919050565b60006020820190508181036000830152612669816120fd565b9050919050565b6000602082019050818103600083015261268981612163565b9050919050565b600060208201905081810360008301526126a9816121c9565b9050919050565b600060208201905081810360008301526126c981612209565b9050919050565b600060208201905081810360008301526126e98161226f565b9050919050565b60006020820190508181036000830152612709816122d5565b9050919050565b600060208201905081810360008301526127298161233b565b9050919050565b60006020820190508181036000830152612749816123a1565b9050919050565b6000602082019050818103600083015261276981612407565b9050919050565b6000602082019050612785600083018461246d565b92915050565b6000604051905081810181811067ffffffffffffffff821117156127b2576127b1612b09565b5b8060405250919050565b600067ffffffffffffffff8211156127d7576127d6612b09565b5b601f19601f8301169050602081019050919050565b600067ffffffffffffffff82111561280757612806612b09565b5b601f19601f8301169050602081019050919050565b600081519050919050565b600081519050919050565b600082825260208201905092915050565b600082825260208201905092915050565b600081905092915050565b600061286a82612984565b915061287583612984565b9250827fffffffffffffffffffffffffffffffffffffffffffffffffffffffffffffffff038211156128aa576128a9612a7c565b5b828201905092915050565b60006128c082612984565b91506128cb83612984565b9250826128db576128da612aab565b5b828204905092915050565b60006128f182612984565b91506128fc83612984565b92508282101561290f5761290e612a7c565b5b828203905092915050565b600061292582612964565b9050919050565b60008115159050919050565b60007fffffffff0000000000000000000000000000000000000000000000000000000082169050919050565b600073ffffffffffffffffffffffffffffffffffffffff82169050919050565b6000819050919050565b82818337600083830152505050565b60005b838110156129bb5780820151818401526020810190506129a0565b838111156129ca576000848401525b50505050565b600060028204905060018216806129e857607f821691505b602082108114156129fc576129fb612ada565b5b50919050565b6000612a0d82612984565b91507fffffffffffffffffffffffffffffffffffffffffffffffffffffffffffffffff821415612a4057612a3f612a7c565b5b600182019050919050565b6000612a5682612984565b9150612a6183612984565b925082612a7157612a70612aab565b5b828206905092915050565b7f4e487b7100000000000000000000000000000000000000000000000000000000600052601160045260246000fd5b7f4e487b7100000000000000000000000000000000000000000000000000000000600052601260045260246000fd5b7f4e487b7100000000000000000000000000000000000000000000000000000000600052602260045260246000fd5b7f4e487b7100000000000000000000000000000000000000000000000000000000600052604160045260246000fd5b6000601f19601f8301169050919050565b612b528161291a565b8114612b5d57600080fd5b50565b612b698161292c565b8114612b7457600080fd5b50565b612b8081612938565b8114612b8b57600080fd5b50565b612b9781612984565b8114612ba257600080fd5b5056fea26469706673582212205d9c0a6eb980ae9d2f4cde7d54c3f1958f64c99d6787764ac83da04343471f9b64736f6c63430008000033",
  "immutableReferences": {},
  "source": "// SPDX-License-Identifier: MIT\npragma solidity ^0.8.0;\n\nimport \"@openzeppelin/contracts/token/ERC721/ERC721.sol\";\nimport \"@openzeppelin/contracts/utils/Counters.sol\";\n\ncontract BookNFT is ERC721 {\n    using Counters for Counters.Counter;\n    Counters.Counter private _tokenIds;\n\n    struct Book {\n        string title;\n        string author;\n        string isbn;\n    }\n\n    mapping(uint256 => Book) private _books;\n\n    constructor() ERC721(\"BookNFT\", \"BNFT\") {}\n\n    function mintBook(address recipient, string memory title, string memory author, string memory isbn) public returns (uint256) {\n        _tokenIds.increment();\n\n        uint256 newItemId = _tokenIds.current();\n        _mint(recipient, newItemId);\n        _books[newItemId] = Book(title, author, isbn);\n\n        return newItemId;\n    }\n\n    function getBook(uint256 tokenId) public view returns (string memory, string memory, string memory) {\n        require(_exists(tokenId), \"BookNFT: Book query for nonexistent token\");\n        Book memory book = _books[tokenId];\n        return (book.title, book.author, book.isbn);\n    }\n}\n",
  "sourcePath": "/Users/kushalthapa/library-management-system/smart-contracts/contracts/BookNFT.sol",
  "compiler": {
    "name": "solc",
    "version": "0.8.0+commit.c7dfd78e.Emscripten.clang"
  },
  "schemaVersion": "3.4.16",
  "updatedAt": "2024-10-08T14:38:25.743Z",
  "networkType": "ethereum",
  "devdoc": {
    "kind": "dev",
    "methods": {
      "approve(address,uint256)": {
        "details": "See {IERC721-approve}."
      },
      "balanceOf(address)": {
        "details": "See {IERC721-balanceOf}."
      },
      "getApproved(uint256)": {
        "details": "See {IERC721-getApproved}."
      },
      "isApprovedForAll(address,address)": {
        "details": "See {IERC721-isApprovedForAll}."
      },
      "name()": {
        "details": "See {IERC721Metadata-name}."
      },
      "ownerOf(uint256)": {
        "details": "See {IERC721-ownerOf}."
      },
      "safeTransferFrom(address,address,uint256)": {
        "details": "See {IERC721-safeTransferFrom}."
      },
      "safeTransferFrom(address,address,uint256,bytes)": {
        "details": "See {IERC721-safeTransferFrom}."
      },
      "setApprovalForAll(address,bool)": {
        "details": "See {IERC721-setApprovalForAll}."
      },
      "supportsInterface(bytes4)": {
        "details": "See {IERC165-supportsInterface}."
      },
      "symbol()": {
        "details": "See {IERC721Metadata-symbol}."
      },
      "tokenURI(uint256)": {
        "details": "See {IERC721Metadata-tokenURI}."
      },
      "transferFrom(address,address,uint256)": {
        "details": "See {IERC721-transferFrom}."
      }
    },
    "version": 1
  },
  "userdoc": {
    "kind": "user",
    "methods": {},
    "version": 1
  }
}